:100000000C9434000C943E000C943E000C943E0082
:100010000C943E000C943E000C943E000C943E0068
:100020000C943E000C943E000C943E000C943E0058
:100030000C943E000C943E000C943E000C943E0048
:100040000C943E000C943E000C943E000C943E0038
:100050000C943E000C943E000C943E000C943E0028
:100060000C943E000C943E0011241FBECFEFD8E04C
:10007000DEBFCDBF0E9440000C9479000C940000BC
:10008000259A80E090E028EE33E043E02D9ABC0111
:10009000FC0107C051706F5F7F4FEF4FFF4F503033
:1000A00071F0D90100001197A115B105D9F751E000
:1000B000673E7407E807F90768F3512DEBCF2D98D9
:1000C000BC01FC0108C051706F5F7F4FEF4FFF4FC5
:1000D000503009F0DBCFD90100001197A115B1050F
:1000E000D9F751E0673E7407E807F90760F7512D2B
:0600F000EACFF894FFCFF7
:00000001FF
